:020000040800F2
:1080000000000320111E0308888100088C810008ED
:108010009081000894810008988100080000000009
:108020000000000000000000000000009C8100082B
:10803000A081000800000000A481000845EE0208AD
:10804000AC810008B081000800000000B881000881
:10805000BC810008C0810008C4810008C8810008F4
:10806000CC810008D0810008D4810008D8810008A4
:10807000DC810008E0810008E4810008E881000854
:10808000EC810008F0810008F94A0208F881000834
:10809000FC810008008200080482000881A3020815
:1080A0000C820008B14B02081482000818820008F4
:1080B000C9A302084B4402080504030828820008EB
:1080C0002C820008308200083482000838820008C0
:1080D0003C82000840820008A5FD020859070308F9
:1080E0004C82000850820008548200085882000820
:1080F0005C820008608200086482000868820008D0
:10810000000000006C820008708200087482000881
:10811000010803087C820008808200088DF80208AC
:10812000888200088C8200089082000894820008EF
:108130009882000800000000000000009C820008F7
:10814000A0820008A4820008A882000891F8020812
:10815000B0820008B4820008B8820008BC8200081F
:10816000C0820008C4820008C8820008CC820008CF
:10817000D0820008D4820008D882000800000000E5
:10818000DC820008E0820008FFF7FEBFFFF7FEBFB9
:10819000FFF7FEBFFFF7FEBFFFF7FEBFFFF7FEBF13
:1081A000FFF7FEBFFFF7FEBF26F04CBEFFF7FEBF96
:1081B000FFF7FEBFAFF30080FFF7FEBFFFF7FEBF84
:1081C000FFF7FEBFFFF7FEBFFFF7FEBFFFF7FEBFE3
:1081D000FFF7FEBFFFF7FEBFFFF7FEBFFFF7FEBFD3
:1081E000FFF7FEBFFFF7FEBFFFF7FEBFFFF7FEBFC3
:1081F000FFF7FEBF1CF080BCFFF7FEBFFFF7FEBF1E
:10820000FFF7FEBFFFF7FEBF22F0BAB8FFF7FEBFD1
:108210001CF0CEBCFFF7FEBFFFF7FEBF22F0D4B8C4
:108220001CF013B928F0EEB8FFF7FEBFFFF7FEBF52
:10823000FFF7FEBFFFF7FEBFFFF7FEBFFFF7FEBF72
:10824000FFF7FEBF27F0AEBD28F086BAFFF7FEBFEE
:10825000FFF7FEBFFFF7FEBFFFF7FEBFFFF7FEBF52
:10826000FFF7FEBFFFF7FEBFFFF7FEBFFFF7FEBF42
:10827000FFF7FEBFFFF7FEBF28F0C2BAFFF7FEBF51
:10828000FFF7FEBF27F002BBFFF7FEBFFFF7FEBF01
:10829000FFF7FEBFFFF7FEBFFFF7FEBFFFF7FEBF12
:1082A000FFF7FEBFFFF7FEBFFFF7FEBF27F0F0BAF4
:1082B000FFF7FEBFFFF7FEBFFFF7FEBFFFF7FEBFF2
:1082C000FFF7FEBFFFF7FEBFFFF7FEBFFFF7FEBFE2
:1082D000FFF7FEBFFFF7FEBFFFF7FEBFFFF7FEBFD2
:0482E000FFF7FEBFE7
:108300007047022070470220704770477047022074
:1083100070470220704702207047012070470020FC
:1083200070470120704770477047022070477047C0
:10833000704770477047704783691E4A1E4910B5E1
:10834000C3E981221D4B1E4A1E4C43661E4BC3616E
:10835000C0E90A23C0E90C4303621C4B03651C4BB4
:108360001C4A43651C4B8363C0E91232C0E91033D9
:108370001A4BC36600234367194B0166C0E91E33DD
:10838000184BC0F88030184BC0F88430174BC0F839
:108390008830174BC0F88C30164BC263C0E91642C8
:1083A0008166C0F89030144BC0F89830134BC0F879
:1083B000943010BD2383000829830008018300083E
:1083C000038300080F830008078300080B8300085D
:1083D0000D83000817830008138300082783000813
:1083E0002B8300081B830008358300082F830008B7
:1083F00031830008378300081F8300083383000897
:10840000704700BF0A480B4BC0F8B43000226FF031
:1084100000414FF0FF3CC0F8B020C0F8A420C0E9F4
:108420002A1C1A809C30012283F81022FFF784BF97
:1084300090280020101600200848094A8261002375
:108440006FF000414FF0FF3CC0E9031C1380436113
:10845000836082F81032FFF76FBF00BF90280020C2
:108460003418002000230649184611F8012B02F0A9
:1084700003029A4002330E2B40EA0200F5D1704706
:10848000581A00200549431E063011F8012B02F04E
:10849000030203F8012F8342F7D17047581A0020D6
:1084A000074B1A7802705A7842709A788270DA789C
:1084B000C2701A7902715A7942719B79837170473F
:1084C000581A0020F8B5094B094D0A4FDE68002400
:1084D00015F8011B7A6C33681059DB6901F0030150
:1084E000043498471C2CF3D1F8BD00BFD0620308B8
:1084F000581A002008000020064A0723013B00F01C
:10850000030113F0FF0302F8011B4FEA9000F5D1BD
:10851000D8E700BF581A0020014B586AECE700BFAB
:10852000080000200549431E063013F8012F02F011
:108530000302834201F8012BF7D1C3E7581A002048
:10854000074B02781A7042785A7082789A70C27813
:10855000DA7002791A7142795A7182799A71B1E7A7
:10856000581A0020014B1046DB6B1847080000200A
:10857000034B10B51B6C14469847206010BD00BF1C
:1085800008000020062873B506460D4679D83F4CF2
:108590006846236B013E9847042E04D8DFE806F0B6
:1085A0000965686B6E009DF800302B60002002B0FA
:1085B00070BD9DF80130E2789A4206D19DF8021014
:1085C000227B914201D10023EFE722799A4206D122
:1085D0009DF80210627B914201D10123E5E76279A7
:1085E0009A4206D19DF80210A27B914201D102234A
:1085F000DBE7A2799A4206D19DF80210E27B914214
:1086000001D10323D1E7E2799A4206D19DF8021005
:10861000227C914201D10423C7E7627A9A4206D1B3
:108620009DF80210A27C914201D10523BDE7A27AF8
:108630009A4206D19DF80210E27C914201D10623B4
:10864000B3E7227A9A4206D19DF80210627C9142E9
:1086500001D10723A9E7E27A9A4214D19DF80220BA
:10866000237D9A420FD108239FE79DF803309CE7B2
:108670009DF8043099E79DF8053096E79DF806309F
:1086800093E7042093E7102091E700BF0800002043
:1086900007B5034B68461B6B984703B05DF804FBB6
:1086A0000800002070B50020FFF7F2FF1E4B1F4CA2
:1086B000DD68206B2B689B6898472B68E06A9B6895
:1086C00098472B68E0689B6898472B68A0689B6870
:1086D00098472B6860689B6898472B6820689B6860
:1086E00098472B68A0699B6898472B68E0699B684E
:1086F00098472B68A06A9B6898472B6860699B68BD
:1087000098472B68206A9B6898472B68606A9B682B
:1087100098472B6820699B6898471CF0ADF9044B7B
:10872000BDE870409B681847D0620308A81A002073
:10873000AC12002000201BF015BF38B503461446CC
:1087400008461BB1012B06D0042038BD1BF060FF8A
:1087500020600020F9E7094B094DDC68094B60688F
:1087600000F50070D8616B6C58612368DB6898472E
:108770006A6C236850699B699847EAE7D0620308EE
:1087800008000020A81A002010B5044618B91BF0F4
:10879000D3FE204610BD0820FCE710B5044618B9EA
:1087A0001BF0A6FE204610BD0820FCE70021F4E7E0
:1087B0004942F2E7F1E773B52C4C0646236B684655
:1087C0000D469847052E06D8DFE806F0030B434612
:1087D000494C8DF800506846E36A9847002002B083
:1087E00070BD082DF7D8DFE805F0050C11161B2029
:1087F000252A2F00E3788DF80130237B8DF8023095
:10880000E9E723798DF80130637BF7E763798DF829
:108810000130A37BF2E7A3798DF80130E37BEDE72C
:10882000E3798DF80130237CE8E7637A8DF8013035
:10883000A37CE3E7A37A8DF80130E37CDEE7237ABB
:108840008DF80130637CD9E7E37A8DF80130237D20
:10885000D4E78DF80350BEE78DF80450BBE78DF8E0
:108860000550B8E78DF80650B5E700BF08000020B6
:1088700038B50D46044648B91BF0FEFF2B68C118F9
:10888000296020461BF058FE204638BD0820FCE732
:1088900010B5034614460846002952D1132B0DD8B3
:1088A000132B0FD8DFE803F010161A1E22260E0E27
:1088B0000E2A0E0E2E39404040404040322B3AD016
:1088C000332B3BD0042004E000201BF0E3FF2060AA
:1088D000002010BD00201BF0CFFFF8E700201BF0A8
:1088E000F5FFF4E700201BF0E3FFF0E700201CF0A9
:1088F00009F8ECE700201BF0F7FFE8E7124B9B8E2E
:108900002360E5E7114B104ADB68D06A1B685B6A9D
:108910009847003818BF0120D9E70C4B0A4ADB689A
:10892000106B1B685B6AF3E7A3F10E002146C0B22F
:10893000FFF728FECCE71CF001F8C8E71CF00CF8A4
:10894000C5E70820C5E700BFA81A0020D0620308C9
:108950001FB5034601920846002940F08580132B7D
:108960000DD8132B11D8DFE803F0121A1F10242C96
:108970001010103110444C58616161616161332BFA
:1089800064D08C2B66D0322B5CD0042404E0019997
:1089900000201BF0D1FD0024204604B010BD019939
:1089A00000201BF09BFEF6E7019900201BF0A0FDC4
:1089B000F1E701990029B8BF494200201BF018FFD8
:1089C000E9E7019900201BF0A5FEE4E7019840F6D5
:1089D0009923984234D8254B80B2988628F01CFF02
:1089E000234929F025F8234B0146DB6800209847EE
:1089F000D1E70199022923D80520FFF7DCFE0446C0
:108A0000CAE71A4A1C4BD06ADB68019A1B6812B18C
:108A10005B699847BFE79B69FBE7019842F21073D7
:108A20009842B2D828F0FCFE1449DAE70199A3F184
:108A30000E000229C0B2E0D9012801D10F29DCDDE6
:108A40001024A9E7D1B21BF0F7FEA4E711461BF0F2
:108A5000E9FEA0E701A90120FFF794FD084B0446B9
:108A60009B6B02A8984797E7082495E7A81A00206F
:108A700000A02945AC120020D062030800FF7F4708
:108A8000080000202DE9F8437B4B7C4CDE68DFF8C2
:108A9000F081706800F52563236300F51E63E362CF
:108AA00000F58D63E36000F59463A36000F58663D1
:108AB000636000F56273236000F5BE63A36100F597
:108AC000B763E36100F1B003A36200F50E73636165
:108AD00000F5CC63236200F5D3636362336800F56D
:108AE0000070DB682061984733686069DB689847ED
:108AF0003368206BDB6898473368E06ADB68984727
:108B00003368206A1B6998473368606A1B69984715
:108B1000D8F84430E2681A60A2685A6062689A60C5
:108B20002268DA60A2691A61E2695A61A26A9A61EE
:108B30000025D8F8442033685059DB689847D8F8A6
:108B40004420336850599B69043598471C2DF0D157
:108B50004C4DD5F8B43000271F704FF400301BF097
:108B60002DFFD4E904123B4638461BF07BFD44F64A
:108B7000206138461BF03CFE46F2A81138461BF037
:108B8000C9FD414BC5F8C030404BC5F8BC30404B27
:108B9000C5F8B8303F4BC5F8C4303F4BC5F8D830A6
:108BA0003E4BC5F8D4303E4BC5F8C8303D4BC5F8F8
:108BB000CC303D4BC5F8F0303C4BC5F8EC303C4B6D
:108BC000C5F8F8303B4BC5F8FC303B4BC5F80831D5
:108BD0003A4BC5F80031D6E900304FF00109DB68A7
:108BE000C5F8B09000F52C609847D6E900305B6975
:108BF00000F52C609847236B0225DA6818685D61E0
:108C0000494622F08EFD4FF4FA63A38633682C4E5A
:108C1000206B1B68984773689847A08E28F0FCFD6E
:108C2000284928F005FFF36801463846984728464A
:108C3000FFF72EFD38461BF03BFE10B1224B9B7810
:108C4000C3B1D8F8283098474FF400301BF0B6FE77
:108C50000023D4E9041218461BF004FD44F62061F9
:108C600000201BF0C5FDBDE8F84346F2A811002026
:108C70001BF050BDBDE8F883D0620308A81A00209D
:108C800008000020902800209B870008B587000876
:108C9000B1870008AD870008918800085189000855
:108CA00089870008718800086585000871850008BB
:108CB0003B8700083587000891860008A5860008D4
:108CC000AC12002000A0294590000020044B1B6836
:108CD0001A781AB902221A800120704700207047C2
:108CE000EC1A00200346052B10B5084614460CD09C
:108CF00007D8023B022B06D81BF02EFE2060002076
:108D000010BD182BF8D00420FAE71BF041FEF5E760
:108D10001B4B70B5DD681B4C2B68E0685B6998479E
:108D20002B6860689B6898472B68A0689B68984789
:108D30002B68606A9B6898472B68A06A9B68984775
:108D40002B6820699B6898472B6860699B689847E7
:108D50002B68A0699B6898472B68E0699B689847D7
:108D60002B68206A9B6898472B68E0689B68984747
:108D70001BF082FE044BBDE870409B68184700BFA3
:108D8000D0620308EC1A0020AC12002010B5144683
:108D900006285ED8DFE800F0042826374247510055
:108DA000146844F620639C4255D82C4B2C4ADB684F
:108DB000506A1B6842F210718C4294BF002101215D
:108DC000DB69984742F21173B4FBF3F003FB1040E8
:108DD00028F022FD234928F02BFE234B0146DB68B7
:108DE00000209847002010BD1C4B1268DB68D3E9B7
:108DF000003000F554701AB1DB6900219847F1E7A3
:108E00009B689847EEE7154B1168DB68144A1B68AE
:108E10005069DB69003918BF0121EFE708461BF0F4
:108E2000F7FB2060DEE70D4B0D4ADB6858681B68D6
:108E300000F50070DB685061E3E7084B084ADB6827
:108E400058681B6800F564615B69116100F5B760E3
:108E5000D7E70420C7E71020C5E700BFD0620308AA
:108E6000EC1A002000FF7F47AC120020C9B200209E
:108E70001DF018B810B5C9B2002014461CF0EEFF62
:108E8000206010BD10B5044618B91BF055FB2046F4
:108E900010BD0820FCE710B5044618B91BF028FBEC
:108EA000204610BD0820FCE70021F4E74942F2E724
:108EB000F1E7F8B500201BF0FBFC10B1104B9878DF
:108EC000E8B1104D2B681C7874B90F4E274600226C
:108ED000E1B2104601341CF049FF802C46F8047BB7
:108EE000F5D12B6801221A804FF400301BF066FD8B
:108EF00000231846D5E901121BF0B4FB0120F8BD90
:108F000090000020EC1A002034AF0020022804BF9B
:108F10000B4B93F8380130B90A4BDB681B685B696F
:108F2000094AD0681847012809D1054B93F8383110
:108F3000012B04D1034BDB681B689B69F0E770478A
:108F400090280020D0620308EC1A002038B50D46A6
:108F5000044620B91BF0ACFC2860204638BD082030
:108F6000FCE7F8B506460F460020114615461C469C
:108F70001CF074FFBC404440344084EA000229469F
:108F80000020BDE8F8401CF08DBF70B50C460146CE
:108F9000002015461E461CF061FF2040E8402EB11F
:108FA000EC40E34304EA53046040001B70BD70B51D
:108FB0002E4E34682578002D45D0022D0ED12C4D33
:108FC00094F901306178002B1CDB6B1893F80032A8
:108FD0009A0712D4637801336370F1E7244994F956
:108FE00001206378002A06DBCA1892F8002202F0FA
:108FF0004202022A15D11E4B05E000201CF0CCFED7
:109000000028E7D01B4B94F901206178002A0BDB84
:1090100053F8212000201CF045FF63780133637072
:1090200070BD01336370DAE733681B78012B06D11A
:10903000114A702100201CF035FF1CF0E5FE33685A
:1090400000221A70ECE728461BF08CFA2B464FF0F2
:10905000807118226F20FFF798FF431E594228465F
:109060005941BDE870401BF02FBB00BFEC1A002037
:109070003823030834AF0020C804050070B5044647
:109080001D46002940F05483332A00F28180332AA0
:1090900000F28380DFE812F083008E009700A000CA
:1090A000AA00B600BF00D000DA00E1008100810014
:1090B00081008100810081008100810081008100A8
:1090C0008100FB0081000301240181002C01390192
:1090D00045014F01810081008100810081008100F4
:1090E0008100810081008100810081008100810078
:1090F000810081008100810081008100690172018D
:109100008C3A422A49D8DFE812F042014800480070
:10911000480048004800480048004800480048000F
:1091200048004800480048004800480048004800FF
:1091300048004800480083018F019B01A701E1011D
:10914000070211021E022A0236024002480254029D
:109150004800480048004800690275027E02880203
:1091600048009A02A602B202C402DA02480048008D
:10917000E402F30248004800480048004800480064
:1091800048004800480048004800FF0248000B0320
:1091900002F17403DBB2422BB2D9042068E018B9A3
:1091A0001BF078FB286003E0296800201BF0C4F95D
:1091B00000205DE010B91BF05FFBF3E72968002099
:1091C0001BF08CFAF4E710B91BF080FBEAE7296882
:1091D00000201BF08DF9EBE70028DED11BF0AEFB81
:1091E000002840F0AB801BF063FBDBE710B91BF0FD
:1091F00089FBD7E729680029B8BF494200201BF046
:10920000F7FAD5E710B91BF06FFBCBE72968002010
:109210001BF080FACCE738B9034608224FF4F85126
:109220001020FFF7B2FEBDE72B68102208214FF493
:10923000F850FFF796FEBBE718B9034602461F2118
:10924000EEE72B68102200211F20F2E70028A4D1AE
:109250001BF0DEF9C0F30010A4E718B9A74B9B8DF3
:109260002B60A5E7286840F69923984201D9102081
:1092700070BDA24B80B2988528F0CEFAA04928F0A4
:10928000D7FBA04B0146DB680020984790E70028F9
:1092900083D02A68112100201CF004FE88E780B9E1
:1092A000152120461CF0DAFD974A002808BF01204E
:1092B0004FF0807393FBF0F39342D4BF2B602A608E
:1092C00076E72B68002B08BF01234FF0807292FBDA
:1092D000F3F28D4B9A42A8BF1A462A601521DAE7AD
:1092E00018B933211CF0BAFD5CE72A683321D2E7B4
:1092F00028B9034612224FF480216C2091E72B6895
:109300006C2212214FF4802093E720B903461322E8
:109310004FF40021F1E72B686C2213214FF4002059
:1093200087E718B90346012202217AE72B68002259
:10933000012102207DE700287FF42FAF20461BF09B
:109340000BFB71490646234622461220FFF71DFEFD
:109350007A2102462346A6FB010128F0C1FC00F158
:109360001303262B98BF00201CE710B91BF0E6FA68
:1093700018E7297800201BF05FFA19E710B91BF0F5
:10938000EBFA0FE7296800201BF04CFA10E754B9FC
:10939000234618224FF070616C20FFF7F6FD4FF462
:1093A000807303415CE72B68102B27D012DC013B54
:1093B000072B16D8072B14D8DFE803F0041E131C64
:1093C00013131322082213462A6018216C224FF02F
:1093D00070602EE7802B15D007DC202B14D0402B9B
:1093E00014D04FF0FF332B6041E7B3F5807FF8D105
:1093F0000022E8E70622E6E70722E4E70422E2E7A4
:109400000522E0E70122DEE70322DCE70222DAE7B9
:1094100024B923460F224FF4C0316EE72B686C222B
:109420000F214FF4C03004E724B923460E224FF435
:10943000804162E72B686C220E214FF48040F8E6F1
:1094400024B923460C224FF4805156E72B686C2236
:109450000C214FF48050ECE66C21D4B920461CF06E
:10946000FDFC400404D5234607224FF4F06144E795
:109470006C2120461CF0F2FC6C21064620461CF0B4
:10948000EDFCC0F3021331057FF5EAAE43F00803AB
:10949000E6E600201CF0E2FC10F4804005D02B68CA
:1094A0006C2207214FF4F060C3E66C211CF0D6FC5F
:1094B0002B686C22C3F3C0030B214FF40060FFF74D
:1094C00050FD2B686C2204217020B2E66C21ECB9AF
:1094D00020461CF0C3FC420403D52346042270211D
:1094E0000BE76C2120461CF0B9FC6C210646204697
:1094F0001CF0B4FCC0F3C313C5E700BFEC1A002096
:1095000000A02945AC120020FFFF0F0000201CF036
:10951000A5FC4304C3D5D4E71CB9234622460F213A
:10952000EBE62B686C2200210F2082E62CB9234643
:109530000F224FF400416D2073E62B686D220F213E
:109540004FF4004075E624B923460D224FF4C04184
:10955000F1E72B686D220D214FF4C04069E624B974
:10956000234608224FF47061E5E72B686D2208213D
:109570004FF470605DE61CB9234605226021DAE7EE
:109580002B686D220521602053E61CB92346224634
:109590000F21D0E72B686D22C5E724B92346182296
:1095A0004FF08071C7E72B686D2218214FF0807053
:1095B0003FE66CB9012310224FF4FE016D20FFF746
:1095C000E4FC10F0400318BF6FF07F031843E9E597
:1095D0002B686D2210214FF4FE002AE624B92346A1
:1095E00011224FF4003188E62B686C2211214FF4D0
:1095F00000301EE6002C7FF4D0AD234610224FF43D
:10960000F8116F200DE61CB920461BF089F9C9E559
:10961000296800201BF0F8F8CAE50CB9142140E6CF
:109620002B68002B08BF01234FF0807292FBF3F2EE
:10963000404B9A42A8BF1A462A6014212BE624B94F
:1096400023460D224FF4005157E62B686C220D2162
:109650004FF40050EDE524B9234614224FF4700175
:109660004BE62B686C2214214FF47000E1E50CB935
:10967000132116E62B68002B08BF01234FF08072E0
:1096800092FBF3F22B4B9A42A8BF1A462A60132191
:1096900001E62CB9234608224FF47F417020C0E533
:1096A0002B68702208214FF47F40FFF75AFC2B688B
:1096B000003B18BF0123002202210420B9E51CB998
:1096C00023462246FF21E9E72B6870220021FF2074
:1096D000AFE524B9234610224FF44031DEE72B6872
:1096E000032B3FF6C4AD702210214FF44030A0E5AB
:1096F00024B9234612224FF48021CFE72B68003B88
:1097000018BF01237022FCE524B9234614224FF42C
:109710004011C3E72B68702214214FF4401088E5F4
:10972000002C7FF43AAD2346224640F2FF3168E731
:1097300008209DE5FFFF0F0007B5019201AB02462F
:109740000120FFF79BFC03B05DF804FB13460246C3
:10975000002093E438B50D46044648B91BF08CF858
:109760002B68C118296020461AF0E6FE204638BD55
:109770000820FCE7052803D8012803D804207047F7
:109780001828FBD1002010607047054B5B6F08461E
:10979000114603B11847034B1B6BDB68FAE700BFA8
:1097A00090280020EC1A00202DE9F041724F734DF3
:1097B000734CFE68D5F8B4302360736803F1B002CF
:1097C000E26003F50072626003F50E72A26003F5B9
:1097D0001E62626203F52562A26203F5B76222612E
:1097E00003F5BE6203F5CC60626103F5C56203F563
:1097F000D36323623368A2611B69E06198473368D1
:10980000206A1B6998473368A0691B6998473368C9
:109810006068DB6898473368A068DB6898473368FE
:10982000E068DB68984733686069DB6898473368AD
:109830002069DB6898473368A06ADB68984733681B
:10984000606ADB6898473368606A9B699847336849
:10985000A0699B699847336820699B6998473A6972
:1098600002F114032363736803F5627393614FF489
:1098700000301BF0A3F80023D4E9011218461AF0B7
:10988000F1FE23683F4AC5F89C4001274FF00008CD
:1098900083F81072C3F80C82D5F8B430C3F80422F0
:1098A000394A1F80C3F80822384BC5F8C030384BFE
:1098B000C5F8BC30374BC5F8B830374BC5F8C430A5
:1098C000364BC5F8D830364BC5F8D430354BC5F8D3
:1098D000C830354BC5F8CC30344BC5F8F030344B7C
:1098E000C5F8EC30334BC5F8FC30334BC5F8F830D5
:1098F000324BC5F8F430324BC5F8083132224FF400
:10990000F073C5E92A322F4BC5F800312E4BC5F84C
:1099100014312E4BC5F81831D6E90030C5F8B070B7
:10992000DB6800F52C609847D6E900305B6900F5EC
:109930002C609847A36A0225DA6818685D61394689
:1099400021F0EFFE4FF4FA63A3853368204EA06A3E
:109950001B68984773689847A08D27F05DFF1D49E5
:1099600028F066F8F3680146404698472846BDE867
:10997000F041FFF7CBBA00BFD06203089028002067
:10998000EC1A0020B38E0008CD8C0008978E0008DA
:10999000B18E0008AD8E0008A98E00084D97000812
:1099A00039970008858E0008559700086D8E0008CD
:1099B000758E0008AF8F00088D8D00084D8F000850
:1099C0000D8F0008118D000875970008E58C0008C0
:1099D000AC12002000A02945044B1B681A781AB964
:1099E00002221A800120704700207047301B00209F
:1099F0000346052B10B5084614460CD007D8023B89
:109A0000022B06D81AF0A8FF2060002010BD182BEA
:109A1000F8D00420FAE71AF0BBFFF5E738B5184B89
:109A2000184CDD6860682B685B6998472B68A068F4
:109A30009B6898472B68E0689B6898472B6820696B
:109A40009B6898472B6860699B6898472B68A0695A
:109A50009B6898472B68E0699B6898472B68206A49
:109A60009B6898472B68606A9B6898471BF004F8CE
:109A7000054B9B689847002384F8283038BD00BF09
:109A8000D0620308301B0020AC12002010B5C9B210
:109A9000002014461CF09EFA206010BDC9B20020C0
:109AA0001CF0BABA10B5044618B91AF045FD2046A4
:109AB00010BD0820FCE710B5044618B91AF018FDCF
:109AC000204610BD0820FCE70021F4E74942F2E7F8
:109AD000F1E7022804BF0C4B93F8380130B90B4B67
:109AE000DB681B685B690A4A50681847012809D17E
:109AF000054B93F83831012B04D1044BDB681B680C
:109B00009B69F0E7704700BF90280020D0620308EF
:109B1000301B002010B51446062849D8DFE800F0B5
:109B2000041B192A353A4400136844F62062934214
:109B300040D842F21172B3FBF2F002FB103027F072
:109B40006BFE1D4927F074FF1C4B0146DB680020AB
:109B50009847002010BD1A4B1268DB68D3E900302B
:109B600000F554701AB1DB6900219847F1E79B6852
:109B70009847EEE7124B1168DB68124A1B68906940
:109B8000DB69003918BF0121EFE708461AF040FDF4
:109B90002060DEE70A4B0B4ADB6858681B6800F55B
:109BA0000070DB689061E3E70220FFF792FFD0E7E7
:109BB0000420CFE71020CDE700FF7F47AC12002044
:109BC000D0620308301B002070B53E4D034695F867
:109BD0002800012816D0022819D02C682378002BE1
:109BE00040D0022B1CD1384E94F901306178002B03
:109BF0002ADB731893F80032980720D46378013376
:109C00006370F1E7EB62022385F82830E5E7EA6A42
:109C10009B1AB3F5FA6FE0D9FFF75BFF0323F3E775
:109C2000294994F901206378002A06DBCA1892F8C2
:109C3000002202F04202022A2BD1234B05E0002031
:109C40001CF066F90028D9D0204B94F901206178E6
:109C5000002A21DB53F8212000201CF0DDF9637875
:109C60000133637000201AF07DFC00201AF0D0FC54
:109C700010F0080424D1820622D56F2120461CF062
:109C8000A9F9C3011CD520460221BDE870401AF095
:109C900089BC01336370C4E72B681B78012B0BD19F
:109CA0000B4A702100201CF0B7F90A4A0A21002053
:109CB0001CF0B2F91CF064F92B6800221A70D1E78D
:109CC00070BD00BF301B0020B825030844B1002040
:109CD0001E000CC40004080038B50D46044620B927
:109CE0001AF0E6FD2860204638BD0820FCE7F8B5EC
:109CF00000201AF0DDFD10B1114B9878E8B1114D3C
:109D00002B681C78D4B9104E27460022E1B21046C9
:109D100001341CF0E7F8802C46F8047BF5D12B6861
:109D200001241C804FF400301AF048FE002318462E
:109D3000D5E902121AF096FC2046F8BD0020FCE797
:109D400090000020301B002044B10020F8B50646EA
:109D50000F460020114615461C461CF03BF9BC403E
:109D60004440344084EA000229460020BDE8F8401F
:109D70001CF052B970B50C460146002015461E462F
:109D80001CF028F92040E8402EB1EC40E34304EAFF
:109D900053046040001B70BD70B504461D46002989
:109DA00040F04983332A00F28180332A00F2838015
:109DB000DFE812F083008E009700A000AA00B60032
:109DC000BF00D000DA0081008100810081008100A5
:109DD0008100810081008100810081008100E1001B
:109DE0008100E9000A01810012011F0181002B019D
:109DF0008100810081008100810045018100810096
:109E0000810081008100810081008100810081004A
:109E10008100810081008100500172018C3A422A48
:109E200049D8DFE812F042014800480048004800E5
:109E300048004800480048004800480048004800E2
:109E400048004800480048004800480048004800D2
:109E50004800850191019D01A901E201020214025D
:109E600021022D02390243024B02570248004800EA
:109E7000480048006C02780281028B0248009D0273
:109E80004800A902BB02D10248004800D902E802FA
:109E90004800480048004800480048004800480082
:109EA000480048004800F4024800000302F174032F
:109EB000DBB2422BB2D9042026E118B91AF0EAFC31
:109EC000286003E0296800201AF036FB00201BE11F
:109ED00010B91AF0D1FCF3E7296800201AF0FEFB54
:109EE000F4E710B91AF0F2FCEAE7296800201AF04A
:109EF000FFFAEBE70028DED11AF020FD002840F041
:109F000087801AF0D5FCDBE710B91AF0FBFCD7E725
:109F100029680029B8BF494200201AF069FCD5E73A
:109F200010B91AF0E1FCCBE7296800201AF0F2FB27
:109F3000CCE738B9034608224FF4F8511020FFF758
:109F400019FFBDE72B68102208214FF4F850FFF7E6
:109F5000FDFEBBE718B9034602461F21EEE72B685A
:109F6000102200211F20F2E70028A4D11AF050FB94
:109F7000C0F30010A4E700289DD02A68112100201A
:109F80001CF04AF8A2E780B9152120461CF022F8FF
:109F9000A84A002808BF01204FF0807393FBF0F31C
:109FA0009342D4BF2B602A6090E72B68002B08BF38
:109FB00001234FF0807292FBF3F29E4B9A42A8BFAE
:109FC0001A462A601521DAE718B933211CF002F885
:109FD00076E72A683321D2E728B9034612224FF4E4
:109FE00080216C20ABE72B686C2212214FF480207B
:109FF000ADE720B9034613224FF40021F1E72B68A7
:10A000006C2213214FF40020A1E700287FF453AF06
:10A0100020461AF0A1FC8749064623462246122014
:10A02000FFF7A8FE7A2102462346A6FB010127F08E
:10A0300057FE00F11303262B98BF002040E720B9FC
:10A0400003460246FF210B2079E72B680B220021F3
:10A05000FF207CE710B91AF071FC31E72978764CC3
:10A0600000201AF0E9FB2B682BB9D4E9021218463C
:10A070001AF0F8FA2AE7714A0023114618461AF036
:10A08000F1FA6F4BA068DD682B685B6998472B6815
:10A09000E0685B69984719E710B91AF05DFC0FE7B3
:10A0A000296800201AF0BEFB10E75CB9234618228D
:10A0B0004FF070616C20FFF75DFE4FF48073034139
:10A0C0002B6003E72B68102B28D012DC013B072BF9
:10A0D00016D8072B14D8DFE803F0041F131D131341
:10A0E0001323082213462A6018216C224FF0706057
:10A0F0002DE7802B16D008DC202B15D0402B15D057
:10A100004FF0FF332B60102070BDB3F5807FF7D187
:10A110000022E7E70622E5E70722E3E70422E1E77A
:10A120000522DFE70122DDE70322DBE70222D9E790
:10A1300024B923460F224FF4C03152E72B686C221A
:10A140000F214FF4C03002E724B923460E224FF40A
:10A15000804146E72B686C220E214FF48040F6E6E2
:10A1600024B923460C224FF480513AE72B686C2225
:10A170000C214FF48050EAE66C21CCB920461BF04C
:10A1800029FF430404D5234607224FF4F06128E752
:10A190006C2120461BF01EFF6C21064620461BF05A
:10A1A00019FFC0F30213300548BF43F0080387E7E7
:10A1B00000201BF00FFF10F4804005D02B686C22AC
:10A1C00007214FF4F060C2E66C211BF003FF2B68FF
:10A1D0006C22C3F3C0030B214FF40060FFF7B6FD00
:10A1E0002B686C2204217020B1E66C21A4B92046B2
:10A1F0001BF0F0FE460403D5234604227021F0E64E
:10A200006C2120461BF0E6FE6C21064620461BF022
:10A21000E1FEC0F3C313C6E700201BF0DBFE4104E0
:10A220002B684FF06C02CBD5DCE75CB923462246A5
:10A230000F21D6E6FFFF0F00301B002038AC0020B6
:10A24000D06203082B686C2200210F207FE62CB916
:10A2500023460F224FF400416D2070E62B686D22DB
:10A260000F214FF4004072E624B923460D224FF42B
:10A27000C041F1E72B686D220D214FF4C04066E626
:10A2800024B9234608224FF47061E5E72B686D225C
:10A2900008214FF470605AE61CB92346052260215C
:10A2A000DAE72B686D220521602050E61CB92346B1
:10A2B00022460F21D0E72B686D22C5E724B923463B
:10A2C00018224FF08071C7E72B686D2218214FF0DC
:10A2D00080703CE66CB9012310224FF4FE016D2022
:10A2E000FFF748FD10F0400318BF6FF07F031843DD
:10A2F000E6E52B686D2210214FF4FE0027E624B915
:10A30000234611224FF400316BE62B686C22112199
:10A310004FF400301BE6002C7FF4CDAD2346102215
:10A320004FF4F8116F200AE61CB920461AF0F8FA2B
:10A33000C6E5296800201AF067FAC7E50CB91421B0
:10A3400023E62B68002B08BF01234FF0807292FB9D
:10A35000F3F23A4B9A42A8BF1A462A6014210EE63D
:10A3600024B923460D224FF400513AE62B686C22A3
:10A370000D214FF40050EAE50CB9132105E62B68D6
:10A38000002B08BF01234FF0807292FBF3F22B4B9E
:10A390009A42A8BF1A462A601321F0E52CB9234639
:10A3A00008224FF47F417020C9E52B6870220821F4
:10A3B0004FF47F40FFF7CAFC2B68003B18BF012316
:10A3C000002202210420C2E51CB923462246FF21B7
:10A3D000E9E72B6870223AE624B9234610224FF4AD
:10A3E0004031E0E72B68032B3FF68DAE7022102141
:10A3F0004FF44030ABE524B9234612224FF48021BC
:10A40000D1E72B68003B18BF01237022EDE524B98A
:10A41000234614224FF44011C5E72B687022142103
:10A420004FF4401093E5002C7FF445AD23462246BF
:10A4300040F2FF3176E7082066E600BFFFFF0F001D
:10A4400007B5019201AB02460120FFF7A5FC03B05E
:10A450005DF804FB1346024600209DE438B50D4626
:10A46000044648B91AF008FA2B68C118296020463A
:10A470001AF062F8204638BD0820FCE7052803D80A
:10A48000012803D8042070471828FBD10020106051
:10A490007047054B5B6F0846114603B11847034BE5
:10A4A0001B6BDB68FAE700BF90280020301B002000
:10A4B0002DE9F041584F594D594CFE68D5F8B4304C
:10A4C0002360736803F1B002626003F50072A2605A
:10A4D00003F50E72E26003F52562226103F5B762AF
:10A4E000626103F5BE6203F5C560A26103F5D36244
:10A4F00003F5CC636362336822621B69E0619847AD
:10A5000033686068DB6898473368A068DB68984701
:10A510003368E068DB68984733682069DB689847F0
:10A520003368A069DB68984733686069DB689847DF
:10A53000336820695B6998473368E0699B6998478D
:10A54000336860699B6998473A6902F11403236391
:10A55000736803F5627393614FF400301AF02EFABA
:10A560000023D4E9021218461AF07CF8D5F8B4306A
:10A570002C4AC3F804222C4AC3F8082200260122E0
:10A58000C5F89C40C3F80C621A8083F81022274B50
:10A59000C5F8C030264BC5F8BC30264BC5F8B830DE
:10A5A000254BC5F8C430254BC5F8D830244BC5F829
:10A5B000D430244BC5F8C830234BC5F8CC30234BDE
:10A5C000C5F8F030224BC5F8EC30224BC5F8FC3012
:10A5D000214BC5F8F830214BC5F8F430204BC5F8B5
:10A5E000083150214FF41673C5E92A311D4BC5F8C7
:10A5F000003184F828201C4B1C4CC5F814311C4B2E
:10A60000C5F81831C5F8B02063689847E36830464C
:10A610000021BDE8F0411847D062030890280020CF
:10A62000301B0020EF9C0008D9990008B79A000859
:10A63000D19A0008CD9A0008C99A000855A40008CC
:10A6400041A40008A59A00085DA400089D9A00088E
:10A650008D9A0008C99B0008159B0008D99C00082A
:10A66000D39A00081D9A00087DA40008AC120020AF
:10A67000F1990008024B0022C3F8A420704700BFE4
:10A6800090280020044B1B681A781AB902221A80FD
:10A690000120704700207047741B002070B5214DC9
:10A6A0002C68237893B3022B0ED11F4E94F90130FE
:10A6B0006178002B1CDB731893F800329B0712D4CF
:10A6C000637801336370F1E7174994F901206378E7
:10A6D000002A06DBCA1892F8002202F04202022A7F
:10A6E00019D1114B05E000201BF0EEFC0028E7D04B
:10A6F0000E4B94F901206178002A0FDB53F82120DA
:10A7000000201BF05DFD637801336370BDE870408D
:10A71000002019F027BF01336370D6E72B680022B1
:10A720001A70F3E7741B00203828030854B3002084
:10A73000C9B200201BF044BD38B504461546084692
:10A7400024B919F065FF2860204638BD0420FCE7D5
:10A7500010B5C9B2002014461BF0EEFC206010BDFD
:10A7600010B5044618B919F0E7FE204610BD0820C0
:10A77000FCE710B5044618B919F0BAFE204610BD22
:10A780000820FCE70021F4E74942F2E7F1E702285C
:10A7900004BF0C4B93F8380130B90B4BDB681B68D6
:10A7A0005B690A4A50681847012809D1054B93F89C
:10A7B0003831012B04D1044BDB681B689B69F0E73F
:10A7C000704700BF90280020D0620308741B00204F
:10A7D00038B50020FFF7DBFF114B124CDD686068D5
:10A7E0002B689B6898472B68A0689B6898472B68E4
:10A7F000E0689B6898472B6820699B6898472B689E
:10A8000060699B6898472B68A0699B6898472B688C
:10A81000E0699B689847BDE838401AF02DB900BF41
:10A82000D0620308741B0020F8B54FF400300F4DC0
:10A830001AF0C4F800231846D5E9021219F012FFE5
:10A840002B681C787CB90A4E27460022E1B21046DC
:10A8500001341BF023FC802C46F8047BF5D12B68D7
:10A8600001201880F8BD0020FCE700BF741B002009
:10A8700054B3002038B50D46044648B919F0FCFF22
:10A880002B68C1182960204619F056FE204638BDB5
:10A890000820FCE710B5144641BB092828D8DFE89A
:10A8A00000F0050B0F13171B1F272722002019F09C
:10A8B000F1FF2060002010BD002019F0DDFFF8E757
:10A8C00000201AF003F8F4E7002019F0F1FFF0E798
:10A8D00000201AF017F8ECE700201AF005F8E8E776
:10A8E00000232360E6E7034B9B8CFAE70820E2E7AE
:10A8F0000420E0E7741B00200B4610B51146002B26
:10A9000033D1092833D8DFE800F0050A0E321219D6
:10A910003232321D002019F00FFE002010BD002041
:10A9200019F0DCFEF9E7002019F0E2FDF5E7002A56
:10A93000B8BF5142002019F05BFFEEE7002019F08C
:10A94000E9FEEAE740F633039A4212D80A4C90B285
:10A95000A08426F061FF094927F06AF8084B0146F8
:10A96000DB6894F826009847D7E70820D6E704204C
:10A97000D4E71020D2E700BF741B0020004003453D
:10A98000AC120020044808B5806ADBB225F08CFFC9
:10A99000013018BF012008BD741B00200020704743
:10A9A000F8B55E4E5E4CF568032384F826306B687C
:10A9B00003F50072A26003F50E72E26003F5AC725B
:10A9C000226103F5C872626103F1E80203F1B0008D
:10A9D000A26103F5907203F52A7323622B68E2618A
:10A9E000DB68606098472B68A068DB6898472B6835
:10A9F000E068DB6898472B682069DB6898472B681C
:10AA00006069DB6898472B68A0691B6998472B68C9
:10AA1000E0691B699847F36AA36200261E705B68B1
:10AA20009847404A4049D2F8B4302360C3F8041232
:10AA30003E49C3F808123E49C2F8C0103D49C2F869
:10AA4000BC103D49C2F8B8103C49C2F8C4103C499A
:10AA5000C2F8D8103B49C2F8D4103B49C2F8C8101C
:10AA60003A49C2F8CC103A49C2F8F0103949C2F854
:10AA7000EC103949C2F8F8103849C2F808113849C1
:10AA8000C2F8041101273221C2E92B174FF4C37118
:10AA9000C2F8A8103349C2F800113349C2F8FC10BB
:10AAA000C3F80C6283F810621E804FF4003019F076
:10AAB00085FFD4E902123346304619F0D3FD304603
:10AAC0004FF4484119F094FE4FF44841304619F0D4
:10AAD00021FE2B68206ADB689847236A02223946E8
:10AAE00018685A61DA6820F01CFE4FF4FA63A384F8
:10AAF0002B681E4D206A1B6898476B689847A08C8E
:10AB000026F08AFE1A4926F093FFEB68014694F876
:10AB1000260098473846BDE8F84038E6D06203087A
:10AB2000741B00209028002029A8000885A6000892
:10AB300073A700088DA7000889A7000885A700084B
:10AB400095A80008F9A8000861A7000875A80008E2
:10AB500031A7000851A7000839A700088FA70008EF
:10AB600075A60008D1A700089DA60008AC12002019
:10AB70000040034570477047002019F0F3BC38B51A
:10AB800004461546084624B919F042FD28602046BF
:10AB900038BD0420FCE710B5044618B919F0CCFC08
:10ABA000204610BD0820FCE710B5044618B919F07E
:10ABB0009FFC204610BD0820FCE70021F4E7494235
:10ABC000F2E7F1E7F8B51C4605460B46002940F0D0
:10ABD000A781332A79D013D8122A0DD8122A0DD87A
:10ABE000DFE802F0323D464F54600C0C0C0C0C0CAC
:10ABF0000C0C690C69696900322A5CD004202DE0D4
:10AC0000D32A00F0DE8010D88B2A78D08C2A00F06E
:10AC10008E808A2AF2D1002860D17E4B7E4ADB6882
:10AC200090691B685B6A984711E0D42A00F0248180
:10AC3000DF2AE3D1002840F05881764B764ADB6862
:10AC4000106A1B685B6AEEE718B919F023FE2060F2
:10AC500003E02168002019F06FFC0020F8BD10B956
:10AC600019F00AFEF3E72168002019F037FDF4E738
:10AC700010B919F02BFEEAE72168002019F038FC22
:10AC8000EBE70028BAD119F013FEE0E710B919F08C
:10AC900039FEDCE721680029B8BF4942002019F0DD
:10ACA000A7FDDAE710B919F01FFED0E721680020F0
:10ACB00019F030FDD1E71DB9284619F03FFEC6E76F
:10ACC0002178002019F0B8FDC7E710B919F044FE4B
:10ACD000BDE72168184619F0A5FDBEE723683BB91A
:10ACE0004C4BDB681B689B694B4A90699847B4E7FB
:10ACF000012BB2D1474BDB681B685B69F4E730B9C5
:10AD0000444B454ADB6850691B685B6A8BE72368E4
:10AD100033B9404BDB681B689B693F4A5069E5E7E4
:10AD2000012B9AD13B4BDB681B685B69F5E7F8B9EF
:10AD3000384B394EDF6870683B685B6A98473B6800
:10AD400005465B6AB06898471DB938B9002323608F
:10AD500083E7012D81D130B90123F8E701287FF481
:10AD60007CAF0223F3E701287FF477AF0323EEE7FC
:10AD70002368032B3FF671AFDFE803F0020D131DCC
:10AD8000244B254CDD682B689B69606898472B68CD
:10AD90009B69A068AAE71F4B1F4CDD682B685B69A5
:10ADA000F3E71C4B1C4CDD682B689B696068984777
:10ADB0002B685B69EDE7174B174CDD682B685B6907
:10ADC000F4E758B9134B144EDF68F06A3B685B6ACE
:10ADD00098473B6805465B6A306BB4E72368032BF2
:10ADE0003FF63BAFDFE803F0021A283A094B0A4C62
:10ADF000DD68E06A2B68DB6898472B68206BDB68AE
:10AE000098472B689B69E06A98472B689B69206B81
:10AE10006CE700BFD0620308B01B0020414B424CDE
:10AE2000DD68E06A2B68DB6898472B68206BDB687D
:10AE300098472B685B69E6E73A4B3B4CDD68E06A74
:10AE40002B68DB6898472B68206BDB6898472B687A
:10AE50009B69E06A98472B685B69D8E7314B324CB5
:10AE6000DD68E06A2B68DB6898472B68206BDB683D
:10AE700098472B685B69ECE7A8B92A4B2A4EDF6834
:10AE8000F0683B685B6A98473B6805465B6A3069D7
:10AE90009847002D3FF459AF012D7FF4DEAE002816
:10AEA0003FF45AAFD9E6236853B91E4B1E4CDD68F8
:10AEB0002B689B69E06898472B689B69206915E7B8
:10AEC000012B05D1174B184CDD682B685B69F1E746
:10AED000022B7FF4C2AE134B134CDD68E0682B6885
:10AEE0009B6998472B685B69E8E72368012B0AD1C7
:10AEF0000C4B0D4CDD68206A2B68DB6898472B688B
:10AF00005B69206AF2E6002B7FF4A7AE054B064C86
:10AF1000DD68206A2B68DB6898472B689B69F0E73F
:10AF200008209BE6D0620308B01B002007B5019201
:10AF300001AB02460120FFF745FE03B05DF804FBBC
:10AF40001346024600203DE6022804BF0B4B93F84F
:10AF5000380130B90A4BDB681B685B69094AD06964
:10AF60001847012809D1054B93F83831012B04D13A
:10AF7000034BDB681B689B69F0E770479028002053
:10AF8000D0620308B01B002038B50020FFF7DCFFBB
:10AF90001B4B1C4CDD6860682B689B6898472B68CE
:10AFA000A0689B6898472B68E0689B6898472B6867
:10AFB00020699B6898472B6860699B6898472B6855
:10AFC000A0699B6898472B68A06A9B6898472B6884
:10AFD000606B9B6898472B6820689B6898472B6834
:10AFE000606A9B6898472B68E06A9B6898472B6863
:10AFF000206B9B689847BDE8384019F03DBD00BF05
:10B00000D0620308B01B002038B50D46044648B98D
:10B0100019F032FC2B68C1182960204619F08CFA0F
:10B02000204638BD0820FCE7794B70B5DD68794CC7
:10B030006B6803F5AC72626003F52A72A26003F5D7
:10B040001E62E26003F52562226103F5707262619F
:10B0500003F57E72A26103F1B002E26103F50E72A4
:10B06000A26203F5D362626303F5CC62226003F14E
:10B07000E80203F50070E26203F5907203F51C73B9
:10B0800023622B682263DB68606298472B68A06AA2
:10B09000DB6898472B68E06ADB6898472B68206B71
:10B0A000DB6898472B68206ADB6898472B68E06963
:10B0B000DB6898472B686068DB6898472B68A06856
:10B0C000DB6898472B68E068DB6898472B68206945
:10B0D000DB6898472B686069DB6898472B68A06934
:10B0E000DB6898472B6860689B6998472B68A06865
:10B0F0009B6998472B68E0689B6998472B68206993
:10B100009B6998472B6860699B6998472B68A06981
:10B110009B6998472B68E06A9B6998472B68206B6E
:10B120009B6998472B68206A5B6998472B68E069A0
:10B130005B6998472B68606B1B6998472B68364D95
:10B140001B6920689847D5F8B43000261E704FF46C
:10B15000003019F033FCD4E909123346304619F0B7
:10B1600081FA44F62061304619F042FB304646F23F
:10B17000A81119F0CFFA294BC5F8C030284BC5F8F3
:10B18000BC30284BC5F8B830274BC5F8C430274B26
:10B19000C5F8D830264BC5F8D430264BC5F8C83092
:10B1A000254BC5F8CC30254BC5F8F030244BC5F8FD
:10B1B000EC30244BC5F8F830234BC5F8FC30234B5A
:10B1C000C5F808310123C5F8B0303046204BC5F82A
:10B1D000003119F06DFB10B11E4B9B78BBB14FF4E1
:10B1E000003019F0EBFB0023D4E90912184619F0DE
:10B1F00039FA44F62061002019F0FAFA002046F2EC
:10B20000A81119F087FABDE8704001209CE670BDD6
:10B21000D0620308B01B002090280020A9AB0008D2
:10B22000C3AB0008BFAB0008BBAB000841AF0008D0
:10B230002DAF000897AB000809B0000875AB0008F7
:10B2400077AB00087FAB000879AB000849AF000876
:10B2500089AF000890000020024B0022C3F8A42010
:10B26000704700BF90280020044B1B681A781AB959
:10B2700002221A800120704700207047F81B00202E
:10B28000C9B200201BF026B938B504461546084659
:10B2900024B919F0BDF92860204638BD0420FCE728
:10B2A00010B5C9B2002014461BF044F9206010BD4F
:10B2B00010B5044618B919F03FF9204610BD082012
:10B2C000FCE710B5044618B919F012F9204610BD74
:10B2D0000820FCE70021F4E74942F2E7F1E7022801
:10B2E00004BF0C4B93F8380130B90B4BDB681B687B
:10B2F0005B690A4A50691847012809D1054B93F840
:10B300003831012B04D1044BDB681B689B69F0E7E3
:10B31000704700BF90280020D0620308F81B00206F
:10B3200038B50020FFF7DBFF124B134CDD68606976
:10B330002B689B6898472B68A0699B6898472B6887
:10B34000E0699B6898472B68206A9B6898472B6840
:10B35000606A9B6898472B68A06A9B6898472B682F
:10B36000E06A9B689847236B9B689847BDE8384024
:10B3700019F082BBD0620308F81B0020F8B54FF427
:10B3800000300F4D19F01AFB00231846D5E90612BC
:10B3900019F068F92B681C787CB90A4E2746002200
:10B3A000E1B2104601341BF047F8802C46F8047BCC
:10B3B000F5D12B6801201880F8BD0020FCE700BF04
:10B3C000F81B002074B7002038B50D46044648B974
:10B3D00019F052FA2B68C1182960204619F0ACF810
:10B3E000204638BD0820FCE708B50B46114613BBC4
:10B3F000062822D8DFE800F004090D2111181C00EE
:10B40000002019F099F8002008BD002019F066F915
:10B41000F9E7002019F06CF8F5E7002AB8BF5142AF
:10B42000002019F0E5F9EEE7002019F073F9EAE7DA
:10B43000034B5A74E7E70820E6E70420E4E700BF7F
:10B44000F81B002010B5144629BB062825D8DFE8D4
:10B4500000F0040A0E12161A1E00002019F01AFA43
:10B460002060002010BD002019F006FAF8E7002047
:10B4700019F02CFAF4E7002019F01AFAF0E700208E
:10B4800019F040FAECE7002019F02EFAE8E7044B37
:10B490005B7C1360E5E70820E4E70420E2E700BFF7
:10B4A000F81B002070B51F4D2C682378022B0ED19D
:10B4B0001D4E94F901306178002B1CDB731893F852
:10B4C00000329B0712D4637801336370F1E71649A9
:10B4D00094F901206378002A06DBCA1892F800224A
:10B4E00002F04202022A15D10F4B05E000201AF0AB
:10B4F000B9FF0028E7D00D4B94F901206178002AAC
:10B500000BDB53F8212000201AF0E4FF63780133AD
:10B51000637070BD01336370DAE72B6800221A7024
:10B52000F7E700BFF81B0020B82A030874B7002013
:10B5300038B5084D2B681B78044633B1EB68C31A45
:10B54000022B02D9FFF7AEFFEC60BDE838400020C7
:10B5500019F008B8F81B0020044808B5006BDBB2EE
:10B5600025F0A2F9013018BF012008BDF81B00200A
:10B5700000207047F8B54A4F4A4CFE68726802F5E1
:10B580000073A36102F50E73E36102F5AC732362ED
:10B5900002F5C873636202F1E803A3623368002511
:10B5A00002F1B000DB68606102F59072E262C4E90A
:10B5B00002556560257498473368A069DB68984731
:10B5C0003368E069DB6898473368206ADB6898472E
:10B5D0003368606ADB6898473368A06A1B699847DC
:10B5E0003368E06A1B699847FB6A23635B68984786
:10B5F0002D4A2E49D2F8B43023600126C3F8041234
:10B600002B491E80C3F808122A4BC2F8C0302A4BBF
:10B61000C2F8BC30294BC2F8B830294BC2F8C4304C
:10B62000284BC2F8D830284BC2F8D430274BC2F888
:10B63000C830274BC2F8CC30264BC2F8F030264B2E
:10B64000C2F8EC30254BC2F8F830254BC2F808316F
:10B65000244BC2F8043132214FF4C373C2E92A31BA
:10B66000214BC2F800314FF40030204BC2F8B060DB
:10B67000C2F8FC3019F0A2F9D4E906122B4628468C
:10B6800018F0F0FF28464FF4484119F0B1F8284669
:10B690004FF4484119F03EF83046BDE8F8401EE648
:10B6A000D0620308F81B0020902800207DB300081A
:10B6B00069B20008C3B20008DDB20008D9B20008C0
:10B6C000D5B2000845B40008E9B30008B1B20008DB
:10B6D000C9B3000881B20008A1B2000889B200080D
:10B6E000DFB2000859B2000821B3000831B50008E4
:10B6F000014B00229A60704790280020044B1B6881
:10B700001A781AB902221A80012070470020704767
:10B710003C1C00202DE9F041434F444CFD68FB6A7E
:10B7200063612B6806469B68606C002E38D0012E42
:10B7300057D198472B68E06B9B6898472B68206C23
:10B740009B6898472B68A06C9B6898472B68606C37
:10B75000DB6898472B68E06BDB6898472B68206CA8
:10B76000DB6898472B68A06CDB6898472B68606C97
:10B770009B6998472B68E06B9B6998472B68206C06
:10B780009B6998472B68A06C9B6998472B68E06A77
:10B790005B69984763691E70BDE8F0415B681847B4
:10B7A00098472B68E06B9B6898472B68206C9B68D8
:10B7B00098472B68A06C9B6898471D4B9B6A9847DD
:10B7C0002B68E06A9B69984763699B6898473A6968
:10B7D00002F11403E3646B6803F562739361BDE8DF
:10B7E000F08198472B68E06B9B6898472B68206C2A
:10B7F0009B6898472B68A06C9B6898470C4B9B6A8A
:10B8000098472B68E06A9B69984763699B689847EB
:10B810003A6902F11403E3646B6803F562739361A0
:10B82000002384F85030DAE7D06203083C1C002083
:10B83000B811002038B5154B154CDD68206A2B680F
:10B840009B6898472B68A0699B6898472B68E069BC
:10B850009B6898472B68606A9B6898472B68A06A2A
:10B860009B6898472B68206B9B6898472B68606B98
:10B870009B6898472B68A06B9B6898472B68E06A89
:10B880009B689847BDE8384019F0F6B8D0620308C5
:10B890003C1C0020034610B5084614461BB1082B7B
:10B8A00006D0042010BD18F0B3FE20600020F9E798
:10B8B0001368064A012B02D182F8503001E0002BB8
:10B8C000FAD092F85000FFF725FFEFE73C1C00206C
:10B8D000C9B200201BF037B910B5C9B20020144618
:10B8E0001BF0CEF8206010BD10B5044618B918F052
:10B8F00023FE204610BD0820FCE710B5044618B909
:10B9000018F0F6FD204610BD0820FCE70021F4E702
:10B910004942F2E7F1E7022804BF0C4B93F83801E3
:10B9200030B90B4BDB681B685B690A4A106A184721
:10B93000012809D1054B93F83831012B04D1044B70
:10B94000DB681B689B69F0E7704700BF9028002008
:10B95000D06203083C1C0020F8B5002018F0A8FFB6
:10B9600020B1184B9B780BB90020F8BD164D4FF451
:10B97000003019F023F8D5E90612AB6A002018F060
:10B9800071FE1249002018F033FF46F2A811002082
:10B9900018F0C0FE0120FFF7BEFF2B681C78002CBA
:10B9A000E2D10B4E27460022E1B2104601341AF0D4
:10B9B000EFFF802C46F8047BF5D12B68012018801E
:10B9C000D3E700BF900000203C1C0020A0860100AF
:10B9D000A4BD002038B50D46044620B918F068FF14
:10B9E0002860204638BD0820FCE770B52D4D95F83D
:10B9F0005130002B47D12C68237893B3022B0ED102
:10BA0000294E94F901306178002B1CDB731893F8F0
:10BA100000329B0712D4637801336370F1E7224947
:10BA200094F901206378002A06DBCA1892F80022F4
:10BA300002F04202022A19D11B4B05E000201AF045
:10BA4000BDFF0028E7D0194B94F901206178002A46
:10BA50000FDB53F8212000201BF075F863780133C9
:10BA60006370BDE87040002018F07CBD0133637046
:10BA7000D6E72B681B78012B01D11AF0D7FF2B6872
:10BA800000221A70EDE723F0E5F96B6DC01A41F260
:10BA90008833984204D9FFF731FE002385F85130EE
:10BAA00070BD00BF3C1C0020382D0308A4BD002041
:10BAB000F8B506460F460020114615461C461AF0FA
:10BAC000DFFFBC404440344084EA000229460020A5
:10BAD000BDE8F8401BF037B870B50C4601460020B1
:10BAE00015461E461AF0CCFF2040E8402EB1EC402F
:10BAF000E34304EA53046040001B70BDF8B50546FB
:10BB00001C46002940F03986232A00F28380232A2C
:10BB100000F28580DFE812F0850090009A00A40012
:10BB2000C500D200DC00EE00FE008300830083002D
:10BB300083008300830083008300830083008300ED
:10BB40008300830083008300830083000601830059
:10BB500028013A014C0183008300830053016201F4
:10BB60008C3A542A5BD8DFE812F04F015A005A0091
:10BB70005A005A005A005A005A005A005A005A00F5
:10BB80005A005A005A005A005A005A005A005A00E5
:10BB90005A005A005A009401A601B801CA010602CF
:10BBA00022023202440256026802780288029A0295
:10BBB000B002C2025A005A005A00DA02E602040336
:10BBC0005A00270339034E0371038D035A005A00AC
:10BBD0009D03B203C703D303DF03F4035A005A00E3
:10BBE0005A005A005A005A005A0009045A001B040D
:10BBF0005A005A00270434044104CD04DF04EC0445
:10BC0000F804050519052B053F0552056505840552
:10BC1000AE05EB0502F17403DBB2542BA0D904206E
:10BC200023E120B918F036FE206000201DE12168D4
:10BC3000002018F081FCF8E718B918F01DFE20600C
:10BC4000F3E72168002018F049FDEEE718B918F075
:10BC50003DFE2060E9E72168002018F049FCE4E798
:10BC60000028DCD118F06AFE18B918F021FE206017
:10BC7000DBE7284618F070FEA74906462B462A4601
:10BC80001220FFF729FF7A2102462B46A6FB01016D
:10BC900026F026F800F11303262B98BF0020206021
:10BCA000C3E718B918F02EFE2060BEE7216800290E
:10BCB000B8BF4942002018F09BFDB6E718B918F04C
:10BCC00013FE2060B1E72168002018F023FDACE7E7
:10BCD00040B9034608224FF4F8511020FFF7FCFE4C
:10BCE0002060A2E72368102208214FF4F850FFF7E4
:10BCF000DFFE9AE738B9034602461F211020FFF7FE
:10BD0000EBFE206091E72368102200211F20FFF73F
:10BD1000CFFE8AE7002882D118F07AFCC0F3001029
:10BD2000206082E77C4E70B915211AF0A9FE012827
:10BD300038BF01204FF08073B3FBF0F0B04294BFE6
:10BD40002060266071E72368002B08BF01234FF0B5
:10BD5000807292FBF3F2B242A8BF324622601521F4
:10BD600000201AF0F0FE60E740B9034613224FF4BA
:10BD700000216C20FFF7B0FE206056E723686C229C
:10BD800013214FF40020FFF793FE4EE740B903461E
:10BD900012224FF480216C20FFF79EFE206044E7C2
:10BDA00023686C2212214FF48020FFF781FE3CE7CC
:10BDB00000287FF434AF594B5B68236035E730B916
:10BDC000034601220221FFF787FE20602DE723684A
:10BDD000002201210220FFF76BFE26E738B9034657
:10BDE0000246FF210B20FFF777FE20601DE7236846
:10BDF0001F2BD3BF00230B2200210B22D8BF1946D3
:10BE0000FF20FFF755FE10E75DB92B4618224FF0D3
:10BE100070616C20FFF760FE4FF480730341236074
:10BE200003E72368102B2AD014DC013B072B18D81A
:10BE3000072B16D8DFE803F00421151F151515256B
:10BE400008221346226018216C224FF07060FFF721
:10BE50002FFEEAE6802B16D008DC202B15D0402BD5
:10BE600015D04FF0FF3323601020F8BDB3F5807F6D
:10BE7000F7D10022E5E70622E3E70722E1E7042203
:10BE8000DFE70522DDE70122DBE70322D9E7022213
:10BE9000D7E745B92B460F224FF4C0316C20FFF78E
:10BEA0001BFE2060C1E623686C220F214FF4C030D6
:10BEB000FFF7FEFDB9E645B92B460E224FF480414F
:10BEC0006C20FFF709FE2060AFE623686C220E218C
:10BED0004FF48040FFF7ECFDA7E645B92B460C2256
:10BEE0004FF480516C20FFF7F7FD20609DE623683A
:10BEF0006C220C214FF48050FFF7DAFD95E66C219F
:10BF000000201AF0BDFD0646C5B9470408D5C6098C
:10BF100006F4F066266088E6FFFF0F003C1C002058
:10BF20006C2128461AF0ACFD001100F0700016F0EC
:10BF30000B0F18BF40F00800206076E66C2100204F
:10BF40001AF09EFD4004236806D56C2207214FF4A9
:10BF5000F060FFF7ADFD68E603F008036C220B21EB
:10BF60004FF40060FFF7A4FD23686C2204217020C9
:10BF7000FFF79EFD59E66C2100201AF081FD7DB986
:10BF8000410404D5000900F0700020604DE6C309AB
:10BF900003F4F063020548BF43F00803236044E65E
:10BFA00023686C2204217020FFF782FD3DE63DB935
:10BFB0002B462A460F216C20FFF78EFD206034E6C9
:10BFC00023686C2200210F20FFF772FD2DE645B992
:10BFD0002B460F224FF400416D20FFF77DFD2060BE
:10BFE00023E623686D220F214FF40040FFF760FD28
:10BFF0001BE645B92B460D224FF4C0416D20FFF7DB
:10C000006BFD206011E623686D220D214FF4C040C6
:10C01000FFF74EFD09E645B92B4608224FF4706143
:10C020006D20FFF759FD2060FFE523686D22082190
:10C030004FF47060FFF73CFDF7E53DB92B46052254
:10C0400060216D20FFF748FD2060EEE523686D223A
:10C0500005216020FFF72CFDE7E53DB92B462A4678
:10C060000F216D20FFF738FD2060DEE523686D228B
:10C0700000210F20FFF71CFDD7E545B92B4608220C
:10C080004FF480717420FFF727FD2060CDE5236811
:10C09000742208214FF48070FFF70AFDC5E56DB9E1
:10C0A0002B462A46FF217420FFF716FD10F04003AF
:10C0B00018BF6FF07F0318432060B6E52368742231
:10C0C0000021FF20FFF7F4FCAFE545B92B4618220D
:10C0D0004FF080716D20FFF7FFFC2060A5E523681D
:10C0E0006D2218214FF08070FFF7E2FC9DE575B9D5
:10C0F0002B4610224FF4FE016D20FFF7EDFC10F0EF
:10C10000400318BF6FF07F03184320608DE523685C
:10C110006D2210214FF4FE00FFF7CAFC85E5002DCB
:10C120007FF47DAD2B4610224FF4F8116F20FFF7FE
:10C13000D3FC206079E525B9284618F0F1FB206092
:10C1400073E52168002018F05FFB2368B149B3EB69
:10C15000E3030CD04FF0807292FBF3F28A42A8BF47
:10C160000A462260142100201AF0EDFC5DE50A4623
:10C17000F7E7A84E7DB9142128461AF081FC012862
:10C1800038BF01204FF08073B3FBF0F0B04294BF92
:10C190002060266049E52368002B08BF01234FF08B
:10C1A000807292FBF3F2B242A8BF324622601421A1
:10C1B00000201AF0C8FC38E545B92B4609224FF497
:10C1C00000717420FFF788FC20602EE5236874223C
:10C1D00009214FF40070FFF76BFC26E56C2135B99F
:10C1E00028461AF04DFCC0F3035020601DE50020E6
:10C1F0001AF046FC2368024663F317526C210020B4
:10C200001AF0A1FC11E5834E7DB9132128461AF0DE
:10C2100037FC012838BF01204FF08073B3FBF0F0EA
:10C22000B04294BF20602660FFE42368002B08BF63
:10C2300001234FF0807292FBF3F2B242A8BF324664
:10C240002260132100201AF07EFCEEE445B92B4653
:10C2500008224FF47F417020FFF73EFC2060E4E4A9
:10C260002368702208214FF47F40FFF721FC2368E8
:10C27000003B18BF0123702208214FF47F40FFF7D5
:10C2800017FCD2E43DB92B462A46FF217020FFF768
:10C2900023FC2060C9E4236870220021FF20FFF7FF
:10C2A00007FCC2E445B92B4610224FF44031702000
:10C2B000FFF712FC2060B8E42368032B3FF6D4ADEF
:10C2C000702210214FF44030FFF7F2FBADE445B986
:10C2D0002B4612224FF480217020FFF7FDFB2060D7
:10C2E000A3E42368012B3FF6BFAD702212214FF467
:10C2F0008020FFF7DDFB98E4002D7FF490AC2B4607
:10C300002A4640F2FF317120FFF7E6FB20608CE403
:10C31000002D7FF484AC2B462A4640F2FF316A2080
:10C32000FFF7DAFB206080E445B92B4616224FF474
:10C3300080017020FFF7D0FB206076E42368012B9A
:10C340003FF66DAC702216214FF48000FFF7B0FB72
:10C350006BE445B92B4617224FF400017020FFF71C
:10C36000BBFB206061E42368012B3FF658AC7022D0
:10C3700017214FF40000FFF79BFB56E445B92B460D
:10C3800014224FF440117020FFF7A6FB20604CE40C
:10C390002368702214214FF44010FFF789FB44E416
:10C3A000002D7FF43CAC2B462A4640F2FF316F2033
:10C3B000FFF792FB206038E42DB9392128461AF0A6
:10C3C0005FFB206031E42268392100201AF0BBFBBA
:10C3D0002BE42DB93A2128461AF052FB206024E4C0
:10C3E00022683A2100201AF0AEFB1EE4002D2DD168
:10C3F000094B0A4EDF68706B3B685B6A98473B6885
:10C4000005465B6AB06B984755B988B9002323602D
:10C410000BE400BFFFFF0F00D06203083C1C0020AC
:10C42000012D7FF402AC50B901232360FFF7FDBB5F
:10C4300001287FF4FAAB02232360FFF7F6BB012843
:10C440007FF4F3AB03232360FFF7EFBB2368032BD9
:10C450003FF6EBABDFE803F002172C41AC4BAD4CE1
:10C46000DD68606B2B68DB6898472B68A06BDB6826
:10C4700098472B68606B9B6998472B68A06B9B69FA
:10C480009847FFF7D2BBA24BA24CDD68606B2B68CC
:10C49000DB6898472B68A06BDB6898472B68606B5C
:10C4A0005B6998472B68A06B9B699847FFF7BDBBFA
:10C4B000974B984CDD68606B2B68DB6898472B685E
:10C4C000A06BDB6898472B68606B9B6998472B686B
:10C4D000A06B5B699847FFF7A8BB8D4B8D4CDD685F
:10C4E000606B2B68DB6898472B68A06BDB6898470C
:10C4F0002B68606B5B6998472B68A06B5B699847FA
:10C50000FFF793BB45B92B462A4603210A20FFF7C4
:10C51000E3FA2060FFF789BB23680A220021032089
:10C52000FFF7C6FAFFF781BB002D7FF478AB01233C
:10C530002A4641F6FF715120FFF7CEFA2060FFF73F
:10C5400074BB002D7FF46BAB734901231022502084
:10C55000FFF7C2FA2060FFF768BB002D7FF45FABE6
:10C5600001232A4641F6FF715020FFF7B5FA2060FB
:10C57000FFF75BBB4DB92B462A4641F6FF715220AF
:10C58000FFF7AAFA2060FFF750BB23685222002170
:10C5900041F6FF70FFF78CFAFFF747BB45B95E49DC
:10C5A0002B4610225220FFF797FA2060FFF73DBB81
:10C5B0002368594852221021FFF77AFAFFF735BB5A
:10C5C000002D7FF42CAB01232A4641F6FF71512048
:10C5D000FFF782FA0A23A0F2F67058434D2390FB2E
:10C5E000F3F02060FFF721BB002D7FF418AB01238F
:10C5F000494910225020FFF76FFA40F6EC335843B8
:10C6000042F2107390FBF3F02060FFF70EBB002D99
:10C610007FF405AB01232A4641F6FF715020FFF756
:10C620005BFA3E4B584342F2107390FBF3F02060EC
:10C63000FFF7FBBA394E75B92B462A4641F6FF7112
:10C640005220FFF749FA42F21073704390FBF3F067
:10C650002060FFF7EABA236842F2107253430021C8
:10C66000522241F6FF7093FBF6F3FFF721FAFFF732
:10C67000DCBA9DB92B46102227495220FFF72CFA2D
:10C68000A0F2F67024F0FEFC1FA3D3E9002324F0EF
:10C690008DFE24F073FF2060FFF7C7BA206824F0F6
:10C6A000F1FC19A3D3E9002324F056FD24F0AEFFDA
:10C6B00025F0D0FA522200F2F67310211648FFF747
:10C6C000F7F9FFF7B2BA4DB9114B124ADB68106B9C
:10C6D0001B685B6A98472060FFF7A7BA2568012DA1
:10C6E0001ED10B4B0B4CDE68206B3368DB68984720
:10C6F0003368206B5B69984784F8515022F0AAFB9D
:10C700006065FFF792BA00BFCDCCCCCCCCCC1E403C
:10C71000D06203083C1C00200000FF1F807D010048
:10C72000002D7FF482AA164B164CDD68206B2B6817
:10C73000DB6898472B68206B9B699847FFF775BAB1
:10C74000012D104B0FD12268012A07D183F85050D8
:10C7500093F85000FEF7DEFFFFF767BA002AF7D123
:10C7600083F85020F4E793F85030012B3FF45CAE8F
:10C77000002B3FF44BAEFFF758BA0820FFF775BB0C
:10C78000D06203083C1C002007B5019201AB0246B1
:10C790000120FFF7B3F903B05DF804FB134602462E
:10C7A0000020FFF7ABB938B50D46044648B918F07C
:10C7B00063F82B68C1182960204617F0BDFE20469B
:10C7C00038BD0820FCE7034BDB6C0846DB681146EC
:10C7D000184700BF3C1C0020044808B54069DBB284
:10C7E00024F062F8013018BF012008BD3C1C002075
:10C7F000014B93F8500070473C1C0020002070470C
:10C800000122F8B51146072018F008FF664B674C67
:10C81000DD686B6803F1B002226203F50072A26169
:10C8200003F50E72E26103F5CC62A26203F51C729D
:10C83000226303F1E802626303F59072A26303F5D9
:10C840002A72E26203F58662626403F5946203F57C
:10C85000D360E26303F58D6203F56273A3642B6812
:10C8600022641B69606298472B68A06A1B6998471D
:10C870002B68A069DB6898472B68E069DB689847FC
:10C880002B68206ADB6898472B68E06ADB6898476A
:10C890002B68206BDB680127984784F8517022F0E1
:10C8A000D9FA2B686065DB68606B98472B68A06BD2
:10C8B000DB6898472B68206B5B6998472B68206A78
:10C8C0005B6998472B68E06A9B6998472B68606BA7
:10C8D0009B6998472B68606B354D9B69984794F826
:10C8E0005000FEF717FFD5F8B430324AC3F80422DF
:10C8F0000026314AC3F808221F80C3F80C6283F86F
:10C9000010624FF400302360C4E90266666018F0DC
:10C9100055F8D4E90612A36A304617F0A3FE304654
:10C92000264917F065FF304646F2A81117F0F2FECF
:10C93000234BC5F8C030234BC5F8BC30224BC5F89B
:10C94000B830224BC5F8C430214BC5F8D830214B44
:10C95000C5F8D430204BC5F8C830204BC5F8CC30D2
:10C960001F4BC5F8F0301F4BC5F8EC301E4BC5F817
:10C97000FC301E4BC5F8F8301D4BC5F8F4301D4B8C
:10C98000C5F808311C4BC5F8043132224FF4257329
:10C99000C5E92A32194BC5F8B070C5F8003102203C
:10C9A000BDE8F840FEF7B7BFD06203083C1C00208A
:10C9B0009028002059B90008FDB60008A0860100A3
:10C9C000FBB8000815B9000811B900080DB9000836
:10C9D0009DC7000889C70008E9B80008A7C7000874
:10C9E000D1B80008D9B80008EBB9000895B800081C
:10C9F000D5B9000817B90008F1B6000835B8000825
:10CA00000346052B10B5084614460CD007D8023B48
:10CA1000022B06D817F0A0FF2060002010BD182BB5
:10CA2000F8D00420FAE717F0B3FFF5E70346012B2F
:10CA300010B5084614460AD0022B0FD093B91368DC
:10CA4000094AB3FA83F35B091371002010BD136820
:10CA5000064AB3FA83F35B091360F6E717F0D8FDD3
:10CA60002060F2E70420F1E7201300206C00002092
:10CA700010B50348C9B214461AF0FCF8206010BD86
:10CA80002013002070B5144C144D014620461AF0B6
:10CA900039F9002017F066FD002017F009FFA368A0
:10CAA0002A780028B8BF4042984234BF00260126A9
:10CAB000B24210D098424FF0050107482CBFA4792C
:10CAC00064791AF0D7F8024664F30302024805219C
:10CAD0001AF0BEF82E7070BD20130020A41C002098
:10CAE0000148C9B21AF0B4B82013002010B50446AA
:10CAF00018B917F021FD204610BD0820FCE710B53D
:10CB0000044618B917F0F4FC204610BD0820FCE7D5
:10CB10000021F4E74942F2E7F1E770B51C4605460B
:10CB20000B46002940F05583D62A0AD88B2A0AD80A
:10CB30001D2A40F2A580322A00F04A81332A00F0F3
:10CB4000508104208DE18C3A4A2AFAD801A353F887
:10CB500022F000BFF5CD000843CB000843CB00080E
:10CB600043CB000843CB000843CB000843CB00086D
:10CB700043CB000843CB000843CB000843CB00085D
:10CB800043CB000843CB000843CB000843CB00084D
:10CB900043CB000843CB000843CB000843CB00083D
:10CBA00043CB000877CE00089BCE0008BDCE00081E
:10CBB000E1CE000803CF000825CF000847CF0008CA
:10CBC00069CF00088BCF0008ADCF0008CBCF00089D
:10CBD000E9CF00080DD000081BD000083DD00008A8
:10CBE00069D0000889D00008A7D00008C5D0000887
:10CBF000E3D0000801D1000815D1000827D10008B2
:10CC000035D1000853D1000871D1000843CB00088A
:10CC100043CB000843CB000843CB000843CB0008BC
:10CC200043CB000843CB000843CB000843CB0008AC
:10CC300043CB000843CB000843CB000843CB00089C
:10CC400043CB000843CB000843CB000843CB00088C
:10CC500043CB000843CB000843CB000889D1000830
:10CC600043CB0008B3D1000843CB000843CB0008F6
:10CC700043CB000843CB000843CB0008C5D10008D4
:10CC80001D2A3FF65EAF01A353F822F005CD000840
:10CC90001BCD00082DCD00083FCD00084BCD00086E
:10CCA00063CD000875CD0008A3CD0008C1CD0008F4
:10CCB00043CB000843CB000843CB000843CB00081C
:10CCC00043CB000843CB000843CB000843CB00080C
:10CCD00043CB000843CB000843CB000843CB0008FC
:10CCE00043CB000843CB000843CB000843CB0008EC
:10CCF00043CB000843CB000843CB000843CB0008DC
:10CD00003FCD000818B917F0C5FD206003E0216889
:10CD1000002017F011FC0020A3E010B917F0ACFDC3
:10CD2000F3E72168002017F0D9FCF4E710B917F0F9
:10CD3000CDFDEAE72168002017F0DAFBEBE70028D9
:10CD40007FF4FFAE17F0B4FDDFE710B917F0DAFD9E
:10CD5000DBE721680029B8BF4942002017F048FDF1
:10CD6000D9E710B917F0C0FDCFE72168002017F010
:10CD7000D1FCD0E7A44E10B9737B2360CBE72368C6
:10CD80007373337B002BC6D10621304619F072FF36
:10CD9000737B024663F304020621304619F058FF04
:10CDA000B9E7994E08B9B37BE7E72368B373337BE0
:10CDB000012BB0D10621304619F05CFFB37BE8E7C8
:10CDC00000287FF4BEAE17F023FCC0F300109CE7F0
:10CDD00010B917F0B3FD98E72178184617F02CFD2D
:10CDE00099E710B917F0B8FD8FE72168184617F0DA
:10CDF00019FD90E740B98448082119F03BFF00F085
:10CE00000F00C0F1080080E72368102B00F0E381D9
:10CE100019DC013B072B20D8072B1ED8DFE813F0C5
:10CE2000DD0108001D0027001D001D001D00290058
:10CE3000072323607448002119F01CFF2368024671
:10CE400063F3030227E0802B00F0C9810ADC202B6A
:10CE500000F0C781402B00F0C6814FF0FF33236004
:10CE6000102070BDB3F5807FF7D10023E1E70623E2
:10CE7000DFE70523DDE730B96348082119F0FAFE42
:10CE8000C0F3402041E76048002119F0F3FE236819
:10CE9000024663F34922002186E030B95A4808214E
:10CEA00019F0E8FEC0F300202FE75748002119F0E1
:10CEB000E1FE2368024663F30822ECE730B95248EA
:10CEC0000C2119F0D7FEC0F3C1301EE74E480421F3
:10CED00019F0D0FE2368024663F3D032042163E0E8
:10CEE00030B949480C2119F0C5FEC0F380300CE779
:10CEF0004548042119F0BEFE2368024663F38E32D2
:10CF0000ECE730B940480C2119F0B4FEC0F3C12061
:10CF1000FBE63D48042119F0ADFE2368024663F3A9
:10CF2000CC22DBE730B938480C2119F0A3FEC0F35E
:10CF3000C310EAE63448042119F09CFE2368024637
:10CF400063F3CA12CAE730B92F480C2119F092FED8
:10CF5000C0F30210D9E62C48042119F08BFE236897
:10CF6000024663F30612B9E730B927480C2119F0DD
:10CF700081FE00F00F00C8E62348042119F07AFE74
:10CF80002368024663F30302A8E71F48052125B979
:10CF900019F070FEC0F3C030B7E619F06BFE2368DD
:10CFA000024663F3CF3205211748F7E616480521FC
:10CFB00025B919F05FFEC0F34130A6E619F05AFE1C
:10CFC0002368024663F34E32EDE70F48052125B989
:10CFD00019F050FEC0F3032097E619F04BFE2368CA
:10CFE000024663F30B22DEE70748052125B919F055
:10CFF00041FEC0F3411088E619F03CFE236802466A
:10D0000063F34612CFE700BF20130020774B08B927
:10D010009B79B2E622689A717DE6062128B97348A9
:10D0200019F028FEC0F300406FE6704819F022FEA8
:10D030002368024663F310420621B5E76B480621D8
:10D040005DB919F017FE030A13F04003C0F3062080
:10D0500018BF6FF07F0303438FE619F00BFE2368C0
:10D06000024663F30E22E7E76048072125B919F06D
:10D0700001FEC0F3813048E619F0FCFD236802464A
:10D0800063F38F3207218FE75848072125B919F03C
:10D09000F1FDC0F3013038E619F0ECFD23680246DB
:10D0A00063F30D32EEE75148072125B919F0E2FD8F
:10D0B000C0F3802029E619F0DDFD2368024663F302
:10D0C0008A22DFE74948072125B919F0D3FDC0F3CB
:10D0D00001201AE619F0CEFD2368024663F3092207
:10D0E000D0E74248072125B919F0C4FDC0F38010EC
:10D0F0000BE619F0BFFD2368024663F38612C1E711
:10D1000000287FF41EAD3948022119F0B3FDC0F3A9
:10D110008420FAE510B917F003FCF6E52168002039
:10D1200017F072FBF7E5314B08B99B6825E62268DA
:10D130009A60F0E52D48072125B919F09BFDC0F351
:10D14000C010E2E519F096FD2368024663F3C712AA
:10D1500098E72648042125B919F08CFDC0F340302A
:10D16000D3E519F087FD2368024663F34D32B5E637
:10D17000072100283FF453AF1C4819F07BFD2368BA
:10D18000024663F310427DE700287FF4DAAC184BC7
:10D190001B683BB11548022119F06CFD800A00F4B0
:10D1A0007870B2E51148012119F064FDC0F38920BF
:10D1B000ABE500287FF4C5AC0C48032119F05AFDFB
:10D1C000C0B2A2E5094B08B91B69D6E522681A610D
:10D1D000A1E5082045E604232BE6082329E60123E0
:10D1E00027E6032325E6022323E600BF20130020C1
:10D1F0006C00002007B5019201AB02460120FFF749
:10D200008CFC03B05DF804FB13460246002084E466
:10D21000014819F0BDBD00BF20130020022804BF43
:10D220000B4B93F8380130B90A4BDB681B685B691C
:10D23000094A10691847012809D1054B93F838317C
:10D24000012B04D1034BDB681B689B69F0E7704737
:10D2500090280020D0620308A41C002038B50020CC
:10D26000FFF7DCFF0F4B104CDD6820692B685B6912
:10D2700098472B6860689B6898472B68E0689B68B4
:10D2800098472B6820699B6898472B6860699B6862
:10D2900098472B68A0689B689847BDE8384017F00E
:10D2A000EBBB00BFD0620308A41C002038B50D46BC
:10D2B000044620B917F0FCFA2860204638BD082043
:10D2C000FCE738B5002017F0F3FA0546A8B90C487A
:10D2D00019F042FD0B4B012402201C60FFF79EFF5A
:10D2E0004FF4003017F06AFB074928464B69D1E933
:10D2F000021217F0B7F9204638BD0020FCE700BF46
:10D30000201300206C000020A41C002038B50D461E
:10D31000044648B917F0B0FA2B68C11829602046B6
:10D3200017F00AF9204638BD0820FCE7052803D885
:10D33000012803D8042070471828FBD10020106072
:10D340007047054B5B6F0846114603B11847034B06
:10D35000DB69DB68FAE700BF90280020A41C0020EE
:10D360002DE9F041444B454CDFF81481D4F8B4204A
:10D370004448454D012700211F60444B19F09CFC97
:10D38000D8F80C60736803F1B0022A6103F1E80277
:10D3900003F500706A6103F50E7203F562736B604A
:10D3A0003368EA60DB68A86098473368E868DB6840
:10D3B000984733682869DB689847336868691B6950
:10D3C000984733686868DB689847D8F8103003F1ED
:10D3D0001402EA616A689A614FF4003017F0EEFABD
:10D3E000D5E902126B69002017F03CF9D4F8B4308B
:10D3F000274AC3F80822274AC3F80422264BC4F858
:10D40000C030264BC4F8BC30254BC4F8B830254B8F
:10D41000C4F8C430244BC4F8D830244BC4F8D430FA
:10D42000234BC4F8C830234BC4F8CC30224BC4F88B
:10D43000F030224BC4F8EC30214BC4F8FC30214BC7
:10D44000C4F8F830204BC4F8F430204BC4F808314D
:10D4500032224FF41673C4E92A321D4BC4F800314E
:10D460001C4BC4F814311C4BC4F8B070C4F818310C
:10D470000220BDE8F041D1E66C0000209028002099
:10D48000D062030820130020A41C0020B82F03083A
:10D4900011D20008C3D20008FFCA000819CB000847
:10D4A00015CB000811CB000809D20008F5D10008FF
:10D4B000EDCA00080DD30008E1CA000871CA0008CF
:10D4C00085CA00082DCA0008ADD200081DD2000888
:10D4D0005DD200082DD3000801CA00080346012BC5
:10D4E00010B5084614460AD0022B0FD093B9136822
:10D4F000094AB3FA83F35B099372002010BD1368E5
:10D50000064AB3FA83F35B091360F6E717F080F875
:10D510002060F2E70420F1E72013002070000020D3
:10D5200010B5044618B917F007F8204610BD0820BA
:10D53000FCE7024B186819F0E4BC00BFD41C0020C3
:10D54000022804BF0B4B93F8380130B90A4BDB6853
:10D550001B685B69094A10691847012809D1054B06
:10D5600093F83831012B04D1034BDB681B689B69AE
:10D57000F0E7704790280020D0620308D41C0020F8
:10D5800038B50020FFF7DCFF0F4B104CDD68206939
:10D590002B685B6998472B6860689B6898472B6885
:10D5A000E0689B6898472B6820699B6898472B68C0
:10D5B00060699B6898472B68A0689B689847BDE89E
:10D5C000384017F059BA00BFD0620308D41C0020BD
:10D5D00038B50D46044620B917F06AF92860204690
:10D5E00038BD0820FCE710B5044628B9034B188164
:10D5F00016F07EFF204610BD0820FCE72013002017
:10D600000021F0E74942EEE7EDE770B5002017F0A2
:10D610004FF90546B0B90C4E0C48316819F054FC6E
:10D620000B4B012402201C60FFF78AFF4FF40030EF
:10D6300017F0C4F92846D6E90212736917F012F8F8
:10D64000204670BD0020FCE7D41C002020130020E1
:10D650007000002038B50D46044648B917F00CF9A3
:10D660002B68C1182960204616F066FF204638BD99
:10D670000820FCE738B5214DEB6904469B68002182
:10D68000C0F30740984795F820202B6803EB8203EE
:10D6900000025860EB6900219B68C4F3072098479B
:10D6A00095F820202B6803EB820301215A68104370
:10D6B00000025860EB69E0B29B6898472B6895F8C8
:10D6C000202003EB82025168084300115060A20C35
:10D6D000186110D004F46022B2F5602F04BFC4F3C7
:10D6E000011285F82020C4F3424242F0080203EB05
:10D6F00082035C6038BD0822F9E700BFD41C00201B
:10D70000094B00F077021B6842F0080203EB82032A
:10D71000C1F313015960054B9B7A1BB941EA4040A4
:10D72000FFF7A8BF704700BFD41C002020130020C3
:10D730000846C0B21146E3E738B504460F2000F0B2
:10D7400013F80323B4FBF3F303EB4303E41A054696
:10D75000E4B220F0300040EA0410FFF78BFF2846C7
:10D76000BDE83840FFF786BF084B9B7A00F00802FF
:10D77000134310B5044601D1FFF7DEFF044B1B68CD
:10D7800004F07F0403EB8403586810BD20130020CD
:10D79000D41C002070B51C4605460B46002940F0FD
:10D7A0003583D62A0AD88B2A0AD81D2A40F2A480AB
:10D7B000322A00F05281332A00F05881042093E18C
:10D7C0008C3A4A2AFAD801A353F822F07FDA0008EB
:10D7D000BDD70008BDD70008BDD70008BDD70008D9
:10D7E000BDD70008BDD70008BDD70008BDD70008C9
:10D7F000BDD70008BDD70008BDD70008BDD70008B9
:10D80000BDD70008BDD70008BDD70008BDD70008A8
:10D81000BDD70008BDD70008BDD70008FDDA000855
:10D820001BDB000837DB000855DB000871DB000854
:10D830008DDB0008A9DB0008C5DB0008E1DB000880
:10D8400003DC00081FDC00083BDC000857DC000894
:10D850006BDC000891DC0008BBDC0008D9DC0008A8
:10D86000F5DC000811DD00082DDD000849DD0008A9
:10D870005BDD00086DDD00087BDD000897DD00083A
:10D88000B3DD0008BDD70008BDD70008BDD700082C
:10D89000BDD70008BDD70008BDD70008BDD7000818
:10D8A000BDD70008BDD70008BDD70008BDD7000808
:10D8B000BDD70008BDD70008BDD70008BDD70008F8
:10D8C000BDD70008BDD70008BDD70008BDD70008E8
:10D8D000BDD70008C9DD0008BDD70008EFDD00088E
:10D8E000BDD70008BDD70008BDD70008BDD70008C8
:10D8F000BDD70008FFDD00081D2A3FF65FAF01A37A
:10D9000053F822F07DD9000893D90008A5D9000862
:10D91000B7D90008C3D90008DBD90008EDD9000841
:10D9200021DA00084BDA0008BDD70008BDD700088F
:10D93000BDD70008BDD70008BDD70008BDD7000877
:10D94000BDD70008BDD70008BDD70008BDD7000867
:10D95000BDD70008BDD70008BDD70008BDD7000857
:10D96000BDD70008BDD70008BDD70008BDD7000847
:10D97000BDD70008BDD70008B7D9000818B916F000
:10D9800089FF206003E02168002016F0D5FD00200B
:10D99000AAE010B916F070FFF3E72168002016F036
:10D9A0009DFEF4E710B916F091FFEAE72168002028
:10D9B00016F09EFDEBE700287FF400AF16F078FF2D
:10D9C000DFE710B916F09EFFDBE721680029B8BF3A
:10D9D0004942002016F00CFFD9E710B916F084FF79
:10D9E000CFE72168002016F095FED0E7A64E10B9CB
:10D9F000F37A2360CBE72368F372A44B586F60B9C6
:10DA0000FFF7B2FE0206C2D40E20FFF7ADFEF37A96
:10DA1000014663F304010E20F0E023683370F3E75E
:10DA2000994E08B93378E4E723683370974B586F01
:10DA300040B9FFF799FE0306A9D50E20FFF794FE23
:10DA40003378E5E72368F372A1E700287FF4B6AEE8
:10DA500016F0DEFDC0F3001093E710B916F06EFF6C
:10DA60008FE72178184616F0E7FE90E710B916F018
:10DA700073FF86E72168184616F0D4FE87E738B9A9
:10DA80000820FFF771FE00F00F00C0F1080078E7F2
:10DA90002368102B00F0BC8118DC013B072B1FD83A
:10DAA000072B1DD8DFE813F0B60108001C00260084
:10DAB0001C001C001C002800072323600820FFF71F
:10DAC00053FE2368014663F3030124E0802B00F03A
:10DAD000A3810ADC202B00F0A181402B00F0A08163
:10DAE0004FF0FF332360102070BDB3F5807FF7D176
